:100000000C9463000C948B000C948B000C944F03A5
:100010000C944F030C944F030C948B000C948B00A6
:100020000C948B000C948B000C948B000C948B0024
:100030000C948B000C948B000C948B000C948B0014
:100040000C94AD020C948B000C941D030C94F702DD
:100050000C948B000C948B000C948B000C948B00F4
:100060000C948B000C948B0000000008000201002F
:100070000003040700000000000000000000000072
:1000800023002600290000000000240027002A0089
:1000900000000000250028002B00040404040404D0
:1000A0000404020202020202030303030303010227
:1000B00004081020408001020408102001020408F6
:1000C00010201304EA0611241FBECFEFD8E0DEBFD4
:1000D000CDBF22E0AEE2B1E001C01D92AB33B2076A
:1000E000E1F711E0A0E0B1E0E4E8F2E102C0059040
:1000F0000D92AE32B107D9F710E0C2E6D0E004C0ED
:100100002197FE010E943D07C136D107C9F70E9421
:10011000FC040C9435090C940000CF93DF93EC01A0
:100120002FB7F8948091770190917801A09179018F
:10013000B0917A012FBF88879987AA87BB87E8810A
:10014000F9810284F385E02DCE01099597FF1EC049
:100150002FB7F8948091770190917801A09179015F
:10016000B0917A012FBF488559856A857B85841BAC
:10017000950BA60BB70B4C815D816E817F81841737
:100180009507A607B707D8F28FEF9FEFDF91CF91C2
:100190000895AF92BF92CF92DF92EF92FF920F93AA
:1001A0001F93CF93DF936C017B018B01040F151F0D
:1001B000EB015E01AE18BF08C017D10759F0699175
:1001C000D601ED91FC910190F081E02DC6010995D9
:1001D000892B79F7C501DF91CF911F910F91FF9086
:1001E000EF90DF90CF90BF90AF900895FC01538DBA
:1001F000448D252F30E0842F90E0821B930B541701
:1002000010F0CF96089501970895FC01918D828D8D
:10021000981761F0A28DAE0FBF2FB11D5D968C9126
:10022000928D9F5F9F73928F90E008958FEF9FEF65
:100230000895FC01918D828D981731F0828DE80F21
:10024000F11D858D90E008958FEF9FEF0895FC01DB
:10025000918D228D892F90E0805C9F4F821B9109A8
:100260008F73992708958BE791E00E94270121E081
:10027000892B09F420E0822F089580E090E0892BFB
:1002800029F00E94330181110C9400000895FC01B3
:10029000A48DA80FB92FB11DA35ABF4F2C91848DE7
:1002A00090E001968F739927848FA689B7892C9344
:1002B000A089B1898C91837080648C93938D848D97
:1002C000981306C00288F389E02D80818F7D80839A
:1002D0000895EF92FF920F931F93CF93DF93EC015A
:1002E00081E0888F9B8D8C8D98131AC0E889F989DD
:1002F000808185FF15C09FB7F894EE89FF896083E0
:10030000E889F98980818370806480839FBF81E060
:1003100090E0DF91CF911F910F91FF90EF900895A2
:10032000F62E0B8D10E00F5F1F4F0F731127E02E7D
:100330008C8D8E110CC00FB607FCFACFE889F989B5
:10034000808185FFF5CFCE010E944701F1CFEB8D73
:10035000EC0FFD2FF11DE35AFF4FF0829FB7F89489
:100360000B8FEA89FB8980818062CFCFCF93DF93A7
:10037000EC01888D8823B9F0AA89BB89E889F989BD
:100380008C9185FD03C0808186FD0DC00FB607FCF2
:10039000F7CF8C9185FFF2CF808185FFEDCFCE0125
:1003A0000E944701E9CFDF91CF910895209170011C
:1003B000309171012817390771F490916E01809185
:1003C0006F01981741F0E0916E01F0E0E25DFE4FA1
:1003D000808190E008958FEF9FEF08950895EF9248
:1003E000FF920F931F93CF93DF93DC015C96ED9008
:1003F000FC905D97E114F10479F481E090E01396AC
:100400009C938E93129790E080E0DF91CF911F91A3
:100410000F91FF90EF9008955196ED91FC915297B6
:1004200050968C915097982F90950FB75E962C917F
:100430005E97122F127021FD6095F8942081112390
:1004400019F1282B2083E7012197F1F728E0462FA7
:1004500050E0308160FF1AC0382B3083E7012197CC
:10046000F1F7BA0175956795215089F7112381F04D
:100470008081892380830FBF5C968D919C91019729
:10048000F1F781E090E0C1CF2923DCCF3923E5CF1C
:100490009081892BEFCF2091700130917101281745
:1004A000390761F480916F0120916E0190E0805CCA
:1004B0009F4F821B91098F739927089590E080E0E8
:1004C0000895209170013091710128173907B9F40E
:1004D00090916E0180916F01981789F0E0916E0103
:1004E000F0E0E25DFE4F808120916E0130E02F5FF1
:1004F0003F4F2F73332720936E0190E008958FEFC5
:100500009FEF089590E080E008950F931F93CF939D
:10051000DF93EC0188819981009759F02A813B8112
:100520002617370730F081E0DF91CF911F910F91AF
:1005300008958B016F5F7F4F0E946808009759F004
:10054000998388831B830A832C813D81232B59F750
:10055000FC011082E8CF80E0E7CF1F920F920FB628
:100560000F9211242F933F938F939F93AF93BF9339
:100570008091770190917801A0917901B0917A01F1
:100580003091760123E0230F2D3758F50196A11DF8
:10059000B11D209376018093770190937801A09309
:1005A0007901B0937A018091720190917301A091C9
:1005B0007401B09175010196A11DB11D8093720166
:1005C00090937301A0937401B0937501BF91AF91A3
:1005D0009F918F913F912F910F900FBE0F901F9081
:1005E000189526E8230F0296A11DB11DD2CF1F92A8
:1005F0000F920FB60F9211242F933F934F935F9357
:100600006F937F938F939F93AF93BF93EF93FF93DA
:100610008BE791E00E944701FF91EF91BF91AF916D
:100620009F918F917F916F915F914F913F912F910A
:100630000F900FBE0F901F9018951F920F920FB63C
:100640000F9211242F938F939F93EF93FF93E09139
:100650008B01F0918C018081E0919101F0919201E8
:1006600082FD1BC09081809194018F5F8F732091D8
:100670009501821741F0E0919401F0E0E558FE4FBA
:10068000958F80939401FF91EF919F918F912F917E
:100690000F900FBE0F901F9018958081F4CF1F927E
:1006A0000F920FB60F9211242F933F934F935F93A6
:1006B0006F937F938F939F93AF93BF93EF93FF932A
:1006C000E0917001F0917101309749F0A685B785EE
:1006D0008585968D91FF14C09C918923A1F4FF918B
:1006E000EF91BF91AF919F918F917F916F915F91AA
:1006F0004F913F912F910F900FBE0F901F90189523
:100700009C91892361F7A389B4899C9185898095FF
:1007100089238C93868997890197F1F7608D718D74
:10072000A685B785558538E020E0CB010197F1F724
:10073000822F90E095958795282F4C91452309F0BD
:100740002068315091F7868D81FD209580916F0151
:1007500090E001968F73992730916E01381799F0C8
:10076000A0916F01B0E0A25DBE4F2C9380936F010A
:10077000828D938D0197F1F7A389B4898C91958926
:10078000892B8C93ACCF868D8160868FF1CF90E0E2
:10079000FC01E859FF4F2491FC01E255FF4F3491D1
:1007A000FC01E656FF4FE491EE23C9F0222339F015
:1007B000233001F1A8F4213019F1223029F1F0E0C1
:1007C000EE0FFF1FE057FF4FA591B4918FB7F8943C
:1007D000EC91611126C030953E233C938FBF089564
:1007E0002730A9F02830C9F0243049F780918000E3
:1007F0008F7D03C0809180008F7780938000DFCF52
:1008000084B58F7784BDDBCF84B58F7DFBCF80919E
:10081000B0008F778093B000D2CF8091B0008F7DF1
:10082000F9CF3E2BDACF0F931F93CF93DF93109224
:100830007E0110927D0188EE93E0A0E0B0E080930D
:100840007F0190938001A0938101B09382012AE0FF
:1008500031E030937C0120937B0125EC30E0309334
:1008600088012093870124EC30E030938A012093A3
:10087000890120EC30E030938C0120938B0121EC36
:1008800030E030938E0120938D0122EC30E03093E4
:10089000900120938F0126EC30E030939201209359
:1008A000910110929401109295011092960110926C
:1008B000970110921B0210921A0280931C029093CF
:1008C0001D02A0931E02B0931F028CE191E0909351
:1008D00019028093180210922F0210922E02109289
:1008E00031021092300210923302109232021092B2
:1008F000350210923402609136026E7F6D7F6093F4
:1009000036026695617081E0682782E00E94C70325
:1009100040EB50E0FA0164918CE990E0FC012491F5
:10092000222399F030E0220F331FF901EA57FF4FDD
:10093000A591B491F901E057FF4F259134912FB75C
:10094000F8943C91632B6C932FBFFA014491409330
:100950002802FC018491E82FF0E0EE0FFF1FE05722
:10096000FF4F8591949190932A028093290201EB85
:1009700010E0F8012491CDE9D0E0FE0184918823B4
:10098000C9F090E0880F991FFC01EA57FF4FA5912D
:10099000B491FC01E057FF4F459154913FB7F89453
:1009A0009C91822F809598239C93FA0190818923B2
:1009B00080833FBF8091360281FD04C061E083E007
:1009C0000E94C70383E080932402F80104910093FE
:1009D0002502FE01C491EC2FF0E0EE0FFF1FE4585A
:1009E000FF4F859194919093270280932602DF9187
:1009F000CF911F910F910895CF93DF93CDB7DEB7BD
:100A000028970FB6F894DEBF0FBECDBF789484B59B
:100A1000826084BD84B5816084BD85B5826085BDFA
:100A200085B5816085BD80916E00816080936E0088
:100A3000109281008091810082608093810080917A
:100A4000810081608093810080918000816080932B
:100A500080008091B10084608093B1008091B000EB
:100A600081608093B00080917A00846080937A00E6
:100A700080917A00826080937A0080917A00816010
:100A800080937A0080917A00806880937A00109237
:100A9000C100109233021092320210923102109271
:100AA000300210922F0210922E028DE991E0909365
:100AB00035028093340290912402963108F047C0A9
:100AC0002DEB30E030932F0220932E022BE931E002
:100AD00030933102209330022CE231E03093330224
:100AE000209332022091680084E0983048F031E091
:100AF0009E3008F430E081E001C0880F3A95EAF7B3
:100B0000822B809368002DE630E0983050F02BE681
:100B100030E09E3030F02CE630E0963110F030E0DE
:100B200020E030932C0220932B02292F30E09830C4
:100B300008F0BAC081E001C0880F9A95EAF7809367
:100B40002D0280913402909135020197F1F7809146
:100B5000320290913302892B49F1E0917001F091BA
:100B6000710182E0E831F80709F1309739F0A38983
:100B7000B4899C918589809589238C9380913602D4
:100B80008E7F8093360210926F0110926E0188E181
:100B900092E09093710180937001E0912B02F091AB
:100BA0002C02808190912D02892B8083E0918B0112
:100BB000F0918C0182E08083E0918701F0918801BF
:100BC0001082E0918901F0918A018FEC808310926C
:100BD0009301E0918F01F091900186E08083E09194
:100BE0008D01F0918E01808180618083E0918D0183
:100BF000F0918E01808188608083E0918D01F09179
:100C00008E01808180688083E0918D01F0918E015A
:100C100080818F7D808380E0E82E80E0F82E88E15F
:100C200092E00E944B02892B09F467C01A82198254
:100C30001C821B821E821D8270E060E0CE01019644
:100C40000E94850229813A8181113BC0211531051D
:100C500019F0C9010E94DF071A8219821E821D82C3
:100C60001C821B8288E192E00E948D004D815E8192
:100C700097FD2FC08F8318868A010F5F1F4FB80121
:100C8000CE0101960E948502882361F329813A8171
:100C90008D819E81BE01695F7F4F820F931F0E94ED
:100CA0002E091E830D83DECF9E3040F4285031097B
:100CB00081E001C0880F2A95EAF741CF2E50310913
:100CC000F7CF1E821D826CE271E0C9010E942E09DD
:100CD000C9CF69817A818BE791E00E94C90042E027
:100CE00050E06AE271E08BE791E00E94C9008981DF
:100CF0009A81009711F00E94DF078BE791E00E9434
:100D00002701892B09F45AC01A8219821C821B827E
:100D10001E821D8270E060E0CE0101960E94850275
:100D200029813A8181112EC02115310519F0C9019F
:100D30000E94DF071A8219821E821D821C821B827A
:100D40008BE791E00E948D004D815E8197FD22C06E
:100D50008F8318868A010F5F1F4FB801CE0101965D
:100D60000E948502882361F329813A818D819E81C9
:100D7000BE01695F7F4F820F931F0E942E091E8361
:100D80000D83DECF1E821D826CE271E0C9010E94DC
:100D90002E09D6CF69817A8188E192E00E94C9004C
:100DA00042E050E06AE271E088E192E00E94C9000E
:100DB00089819A81009711F00E94DF07E114F10404
:100DC00009F42DCF0E943301882309F428CF0E9413
:100DD000000025CF8CE191E09093190280931802D6
:100DE00080917001909171018851924071F4E0916D
:100DF0002B02F0912C02908180912D028095892305
:100E00008083109271011092700108952F923F9289
:100E10004F925F926F927F928F929F92AF92BF920A
:100E2000CF92DF92EF92FF920F931F93CF93DF93B6
:100E3000CDB7DEB7CA1BDB0B0FB6F894DEBF0FBE13
:100E4000CDBF09942A88398848885F846E847D8460
:100E50008C849B84AA84B984C884DF80EE80FD8062
:100E60000C811B81AA81B981CE0FD11D0FB6F894D8
:100E7000DEBF0FBECDBFED010895EE0FFF1F059041
:100E8000F491E02D09940F931F93CF93DF93823059
:100E9000910510F482E090E0E0913902F0913A027D
:100EA00030E020E0B0E0A0E0309799F42115310562
:100EB00009F44AC0281B390B24303105D8F58A8142
:100EC0009B816115710589F1FB0193838283FE018A
:100ED00011C0408151810281138148175907E0F008
:100EE0004817590799F4109761F012960C931297CE
:100EF00013961C933296CF01DF91CF911F910F91E2
:100F000008950093390210933A02F4CF2115310568
:100F100051F04217530738F0A901DB019A01BD01D6
:100F2000DF01F801C1CFEF01F9CF90933A0280932E
:100F30003902CDCFFE01E20FF31F8193919322502E
:100F4000310939832883D7CF209137023091380275
:100F5000232B41F420910201309103013093380298
:100F600020933702209100013091010121153105B4
:100F700041F42DB73EB74091040150910501241B67
:100F8000350BE0913702F0913802E217F307A0F435
:100F90002E1B3F0B2817390778F0AC014E5F5F4FCF
:100FA0002417350748F04E0F5F1F509338024093C7
:100FB0003702819391939FCFF0E0E0E09CCFCF93F5
:100FC000DF930097E9F0FC01329713821282A0911F
:100FD0003902B0913A02ED0130E020E01097A1F41F
:100FE00020813181820F931F209137023091380286
:100FF0002817390709F061C0F0933802E0933702EF
:10100000DF91CF910895EA01CE17DF07E8F54A8115
:101010005B819E0141155105B1F7E901FB83EA832C
:1010200049915991C40FD51FEC17FD0761F48081D8
:1010300091810296840F951FE901998388838281AB
:1010400093819B838A83F0E0E0E012968D919C91DE
:1010500013970097B9F52D913C911197CD01029608
:10106000820F931F209137023091380228173907D9
:1010700039F6309751F510923A0210923902B09336
:101080003802A0933702BCCFD383C2834081518101
:10109000840F951FC817D90761F44E5F5F4F888191
:1010A0009981480F591F518340838A819B81938383
:1010B00082832115310509F0B0CFF0933A02E09315
:1010C00039029ECFFD01DC01C0CF13821282D7CF3F
:1010D000B0E0A0E0EEE6F8E00C9408078C01009781
:1010E00051F4CB010E9443078C01C801CDB7DEB794
:1010F000E0E10C942407FC01E60FF71F9C0122504D
:101100003109E217F30708F49DC0D901CD91DC91B4
:101110001197C617D70798F0C530D10530F3CE0127
:1011200004978617970708F3C61BD70B2297C1931E
:10113000D1936D937C93CF010E94DF07D6CF5B01E3
:10114000AC1ABD0A4C018C0E9D1EA0913902B091C3
:101150003A02512C412CF12CE12C109731F5809161
:101160003702909138028815990509F05CC046163F
:10117000570608F058C08091000190910101009736
:1011800041F48DB79EB74091040150910501841B35
:10119000950BE817F90708F055C0F0933802E09373
:1011A0003702F90171836083A0CF8D919C911197D3
:1011B00012966C90129713967C901397A815B90508
:1011C00059F56C0142E0C40ED11CCA14DB0420F1B5
:1011D000AC014A195B09DA011296159780F0628218
:1011E000738251834083D9016D937C93E114F104A0
:1011F00071F0D7011396FC93EE93129776CF229657
:101200008C0F9D1FF90191838083F301EFCFF09341
:101210003A02E093390269CF4816590608F42C01C6
:101220007D01D3019ACFCB010E9443077C01009737
:1012300049F0AE01B8010E942509C8010E94DF07EC
:10124000870153CF10E000E050CFFB01DC0102C06A
:1012500001900D9241505040D8F70895FB01DC01F8
:1012600001900D920020E1F7089510E0C2E6D0E071
:1012700004C0FE010E943D072196C336D107C9F77D
:04128000F894FFCF10
:1012840000003B028000000000006901C900F60074
:10129400B60127010501190100000000EF01C90092
:0E12A4008202EE014B026102D6010D0A00002B
:00000001FF
